{
  "contractName": "Mwdao",
  "abi": [
    {
      "inputs": [
        {
          "internalType": "uint256",
          "name": "initalToken",
          "type": "uint256"
        }
      ],
      "stateMutability": "nonpayable",
      "type": "constructor"
    },
    {
      "anonymous": false,
      "inputs": [
        {
          "indexed": true,
          "internalType": "address",
          "name": "owner",
          "type": "address"
        },
        {
          "indexed": true,
          "internalType": "address",
          "name": "spender",
          "type": "address"
        },
        {
          "indexed": false,
          "internalType": "uint256",
          "name": "value",
          "type": "uint256"
        }
      ],
      "name": "Approval",
      "type": "event"
    },
    {
      "anonymous": false,
      "inputs": [
        {
          "indexed": false,
          "internalType": "uint256",
          "name": "id",
          "type": "uint256"
        },
        {
          "indexed": false,
          "internalType": "address",
          "name": "member",
          "type": "address"
        },
        {
          "indexed": false,
          "internalType": "uint256",
          "name": "token",
          "type": "uint256"
        }
      ],
      "name": "MemberAdded",
      "type": "event"
    },
    {
      "anonymous": false,
      "inputs": [
        {
          "indexed": true,
          "internalType": "address",
          "name": "previousOwner",
          "type": "address"
        },
        {
          "indexed": true,
          "internalType": "address",
          "name": "newOwner",
          "type": "address"
        }
      ],
      "name": "OwnershipTransferred",
      "type": "event"
    },
    {
      "anonymous": false,
      "inputs": [
        {
          "indexed": false,
          "internalType": "uint256",
          "name": "id",
          "type": "uint256"
        },
        {
          "indexed": false,
          "internalType": "address",
          "name": "proposer",
          "type": "address"
        },
        {
          "indexed": false,
          "internalType": "string",
          "name": "description",
          "type": "string"
        },
        {
          "indexed": false,
          "internalType": "uint256",
          "name": "startBlock",
          "type": "uint256"
        },
        {
          "indexed": false,
          "internalType": "uint256",
          "name": "endBlock",
          "type": "uint256"
        }
      ],
      "name": "ProposalCreated",
      "type": "event"
    },
    {
      "anonymous": false,
      "inputs": [
        {
          "indexed": true,
          "internalType": "address",
          "name": "from",
          "type": "address"
        },
        {
          "indexed": true,
          "internalType": "address",
          "name": "to",
          "type": "address"
        },
        {
          "indexed": false,
          "internalType": "uint256",
          "name": "value",
          "type": "uint256"
        }
      ],
      "name": "Transfer",
      "type": "event"
    },
    {
      "anonymous": false,
      "inputs": [
        {
          "indexed": false,
          "internalType": "address",
          "name": "voter",
          "type": "address"
        },
        {
          "indexed": false,
          "internalType": "uint256",
          "name": "proposalId",
          "type": "uint256"
        },
        {
          "indexed": false,
          "internalType": "bool",
          "name": "support",
          "type": "bool"
        },
        {
          "indexed": false,
          "internalType": "uint256",
          "name": "votes",
          "type": "uint256"
        }
      ],
      "name": "VoteCasted",
      "type": "event"
    },
    {
      "inputs": [
        {
          "internalType": "address",
          "name": "owner",
          "type": "address"
        },
        {
          "internalType": "address",
          "name": "spender",
          "type": "address"
        }
      ],
      "name": "allowance",
      "outputs": [
        {
          "internalType": "uint256",
          "name": "",
          "type": "uint256"
        }
      ],
      "stateMutability": "view",
      "type": "function",
      "constant": true
    },
    {
      "inputs": [
        {
          "internalType": "address",
          "name": "spender",
          "type": "address"
        },
        {
          "internalType": "uint256",
          "name": "amount",
          "type": "uint256"
        }
      ],
      "name": "approve",
      "outputs": [
        {
          "internalType": "bool",
          "name": "",
          "type": "bool"
        }
      ],
      "stateMutability": "nonpayable",
      "type": "function"
    },
    {
      "inputs": [
        {
          "internalType": "address",
          "name": "account",
          "type": "address"
        }
      ],
      "name": "balanceOf",
      "outputs": [
        {
          "internalType": "uint256",
          "name": "",
          "type": "uint256"
        }
      ],
      "stateMutability": "view",
      "type": "function",
      "constant": true
    },
    {
      "inputs": [],
      "name": "decimals",
      "outputs": [
        {
          "internalType": "uint8",
          "name": "",
          "type": "uint8"
        }
      ],
      "stateMutability": "view",
      "type": "function",
      "constant": true
    },
    {
      "inputs": [
        {
          "internalType": "address",
          "name": "spender",
          "type": "address"
        },
        {
          "internalType": "uint256",
          "name": "subtractedValue",
          "type": "uint256"
        }
      ],
      "name": "decreaseAllowance",
      "outputs": [
        {
          "internalType": "bool",
          "name": "",
          "type": "bool"
        }
      ],
      "stateMutability": "nonpayable",
      "type": "function"
    },
    {
      "inputs": [
        {
          "internalType": "address",
          "name": "spender",
          "type": "address"
        },
        {
          "internalType": "uint256",
          "name": "addedValue",
          "type": "uint256"
        }
      ],
      "name": "increaseAllowance",
      "outputs": [
        {
          "internalType": "bool",
          "name": "",
          "type": "bool"
        }
      ],
      "stateMutability": "nonpayable",
      "type": "function"
    },
    {
      "inputs": [],
      "name": "name",
      "outputs": [
        {
          "internalType": "string",
          "name": "",
          "type": "string"
        }
      ],
      "stateMutability": "view",
      "type": "function",
      "constant": true
    },
    {
      "inputs": [],
      "name": "owner",
      "outputs": [
        {
          "internalType": "address",
          "name": "",
          "type": "address"
        }
      ],
      "stateMutability": "view",
      "type": "function",
      "constant": true
    },
    {
      "inputs": [],
      "name": "renounceOwnership",
      "outputs": [],
      "stateMutability": "nonpayable",
      "type": "function"
    },
    {
      "inputs": [],
      "name": "symbol",
      "outputs": [
        {
          "internalType": "string",
          "name": "",
          "type": "string"
        }
      ],
      "stateMutability": "view",
      "type": "function",
      "constant": true
    },
    {
      "inputs": [],
      "name": "totalSupply",
      "outputs": [
        {
          "internalType": "uint256",
          "name": "",
          "type": "uint256"
        }
      ],
      "stateMutability": "view",
      "type": "function",
      "constant": true
    },
    {
      "inputs": [
        {
          "internalType": "address",
          "name": "recipient",
          "type": "address"
        },
        {
          "internalType": "uint256",
          "name": "amount",
          "type": "uint256"
        }
      ],
      "name": "transfer",
      "outputs": [
        {
          "internalType": "bool",
          "name": "",
          "type": "bool"
        }
      ],
      "stateMutability": "nonpayable",
      "type": "function"
    },
    {
      "inputs": [
        {
          "internalType": "address",
          "name": "sender",
          "type": "address"
        },
        {
          "internalType": "address",
          "name": "recipient",
          "type": "address"
        },
        {
          "internalType": "uint256",
          "name": "amount",
          "type": "uint256"
        }
      ],
      "name": "transferFrom",
      "outputs": [
        {
          "internalType": "bool",
          "name": "",
          "type": "bool"
        }
      ],
      "stateMutability": "nonpayable",
      "type": "function"
    },
    {
      "inputs": [
        {
          "internalType": "address",
          "name": "newOwner",
          "type": "address"
        }
      ],
      "name": "transferOwnership",
      "outputs": [],
      "stateMutability": "nonpayable",
      "type": "function"
    },
    {
      "inputs": [
        {
          "internalType": "address",
          "name": "member",
          "type": "address"
        },
        {
          "internalType": "uint256",
          "name": "token",
          "type": "uint256"
        }
      ],
      "name": "addMember",
      "outputs": [],
      "stateMutability": "nonpayable",
      "type": "function"
    },
    {
      "inputs": [
        {
          "internalType": "address",
          "name": "member",
          "type": "address"
        }
      ],
      "name": "removeMember",
      "outputs": [],
      "stateMutability": "nonpayable",
      "type": "function"
    },
    {
      "inputs": [
        {
          "internalType": "string",
          "name": "description",
          "type": "string"
        }
      ],
      "name": "createProposal",
      "outputs": [
        {
          "internalType": "uint256",
          "name": "proposalId",
          "type": "uint256"
        }
      ],
      "stateMutability": "nonpayable",
      "type": "function"
    },
    {
      "inputs": [
        {
          "internalType": "uint256",
          "name": "proposalId",
          "type": "uint256"
        },
        {
          "internalType": "bool",
          "name": "support",
          "type": "bool"
        }
      ],
      "name": "castVote",
      "outputs": [],
      "stateMutability": "nonpayable",
      "type": "function"
    },
    {
      "inputs": [
        {
          "internalType": "uint256",
          "name": "proposalId",
          "type": "uint256"
        }
      ],
      "name": "state",
      "outputs": [
        {
          "internalType": "enum Mwdao.ProposalState",
          "name": "",
          "type": "uint8"
        }
      ],
      "stateMutability": "view",
      "type": "function",
      "constant": true
    },
    {
      "inputs": [],
      "name": "getMemberCount",
      "outputs": [
        {
          "internalType": "uint256",
          "name": "count",
          "type": "uint256"
        }
      ],
      "stateMutability": "view",
      "type": "function",
      "constant": true
    },
    {
      "inputs": [],
      "name": "getProposalCount",
      "outputs": [
        {
          "internalType": "uint256",
          "name": "count",
          "type": "uint256"
        }
      ],
      "stateMutability": "view",
      "type": "function",
      "constant": true
    },
    {
      "inputs": [
        {
          "internalType": "uint256",
          "name": "id",
          "type": "uint256"
        }
      ],
      "name": "getProposal",
      "outputs": [
        {
          "internalType": "address",
          "name": "proposer",
          "type": "address"
        },
        {
          "internalType": "string",
          "name": "description",
          "type": "string"
        },
        {
          "internalType": "uint256",
          "name": "startBlock",
          "type": "uint256"
        },
        {
          "internalType": "uint256",
          "name": "endBlock",
          "type": "uint256"
        },
        {
          "internalType": "uint256",
          "name": "forVotes",
          "type": "uint256"
        },
        {
          "internalType": "uint256",
          "name": "againstVotes",
          "type": "uint256"
        }
      ],
      "stateMutability": "view",
      "type": "function",
      "constant": true
    },
    {
      "inputs": [
        {
          "internalType": "uint256",
          "name": "proposalId",
          "type": "uint256"
        },
        {
          "internalType": "address",
          "name": "voter",
          "type": "address"
        }
      ],
      "name": "getReceipt",
      "outputs": [
        {
          "components": [
            {
              "internalType": "bool",
              "name": "hasVoted",
              "type": "bool"
            },
            {
              "internalType": "bool",
              "name": "support",
              "type": "bool"
            },
            {
              "internalType": "uint256",
              "name": "votes",
              "type": "uint256"
            }
          ],
          "internalType": "struct Mwdao.Receipt",
          "name": "receipt",
          "type": "tuple"
        }
      ],
      "stateMutability": "view",
      "type": "function",
      "constant": true
    },
    {
      "inputs": [
        {
          "internalType": "address",
          "name": "_member",
          "type": "address"
        }
      ],
      "name": "isMember",
      "outputs": [
        {
          "internalType": "bool",
          "name": "member",
          "type": "bool"
        }
      ],
      "stateMutability": "view",
      "type": "function",
      "constant": true
    }
  ],
  "bytecode": "0x6080604052600060085560006009553480156200001b57600080fd5b50604051620039a1380380620039a1833981810160405262000041919081019062000722565b6040518060400160405280601d81526020017f4d6169626f726e576f6c666620476f7665726e616e636520546f6b656e0000008152506040518060400160405280600381526020017f4d574700000000000000000000000000000000000000000000000000000000008152506000620000bf620001d560201b60201c565b9050806000806101000a81548173ffffffffffffffffffffffffffffffffffffffff021916908373ffffffffffffffffffffffffffffffffffffffff1602179055508073ffffffffffffffffffffffffffffffffffffffff16600073ffffffffffffffffffffffffffffffffffffffff167f8be0079c531659141344cd1fd0a4f28419497f9722a3daafe3b4186f6b6457e060405160405180910390a3508160049080519060200190620001759291906200065c565b5080600590805190602001906200018e9291906200065c565b506012600660006101000a81548160ff021916908360ff1602179055505050620001ce620001c1620001d560201b60201c565b82620001dd60201b60201c565b50620009e9565b600033905090565b620001ed620001d560201b60201c565b73ffffffffffffffffffffffffffffffffffffffff166000809054906101000a900473ffffffffffffffffffffffffffffffffffffffff1673ffffffffffffffffffffffffffffffffffffffff16146200027e576040517f08c379a00000000000000000000000000000000000000000000000000000000081526004016200027590620008e2565b60405180910390fd5b600062000291836200034660201b60201c565b14620002d4576040517f08c379a0000000000000000000000000000000000000000000000000000000008152600401620002cb906200089e565b60405180910390fd5b620002e682826200038f60201b60201c565b620002f66200054060201b60201c565b7f9c3ef49be63f6a0edfff97a520c2676e3ca4deacd169af5c57a0ea1541b6c68d62000327620005f560201b60201c565b83836040516200033a9392919062000943565b60405180910390a15050565b6000600160008373ffffffffffffffffffffffffffffffffffffffff1673ffffffffffffffffffffffffffffffffffffffff168152602001908152602001600020549050919050565b600073ffffffffffffffffffffffffffffffffffffffff168273ffffffffffffffffffffffffffffffffffffffff16141562000402576040517f08c379a0000000000000000000000000000000000000000000000000000000008152600401620003f99062000904565b60405180910390fd5b6200041660008383620005ff60201b60201c565b62000432816003546200060460201b62001a701790919060201c565b6003819055506200049181600160008573ffffffffffffffffffffffffffffffffffffffff1673ffffffffffffffffffffffffffffffffffffffff168152602001908152602001600020546200060460201b62001a701790919060201c565b600160008473ffffffffffffffffffffffffffffffffffffffff1673ffffffffffffffffffffffffffffffffffffffff168152602001908152602001600020819055508173ffffffffffffffffffffffffffffffffffffffff16600073ffffffffffffffffffffffffffffffffffffffff167fddf252ad1be2c89b69c2b068fc378daa952ba7f163c4a11628f55a4df523b3ef8360405162000534919062000926565b60405180910390a35050565b62000550620001d560201b60201c565b73ffffffffffffffffffffffffffffffffffffffff166000809054906101000a900473ffffffffffffffffffffffffffffffffffffffff1673ffffffffffffffffffffffffffffffffffffffff1614620005e1576040517f08c379a0000000000000000000000000000000000000000000000000000000008152600401620005d890620008e2565b60405180910390fd5b600960008154809291906001019190505550565b6000600954905090565b505050565b60008082840190508381101562000652576040517f08c379a00000000000000000000000000000000000000000000000000000000081526004016200064990620008c0565b60405180910390fd5b8091505092915050565b828054600181600116156101000203166002900490600052602060002090601f016020900481019282601f106200069f57805160ff1916838001178555620006d0565b82800160010185558215620006d0579182015b82811115620006cf578251825591602001919060010190620006b2565b5b509050620006df9190620006e3565b5090565b6200070891905b8082111562000704576000816000905550600101620006ea565b5090565b90565b6000815190506200071c81620009cf565b92915050565b6000602082840312156200073557600080fd5b600062000745848285016200070b565b91505092915050565b620007598162000991565b82525050565b60006200076e60248362000980565b91507f5573657220697320616c72656164792061206d656d626572206f66207468697360008301527f2044414f000000000000000000000000000000000000000000000000000000006020830152604082019050919050565b6000620007d6601b8362000980565b91507f536166654d6174683a206164646974696f6e206f766572666c6f7700000000006000830152602082019050919050565b60006200081860208362000980565b91507f4f776e61626c653a2063616c6c6572206973206e6f7420746865206f776e65726000830152602082019050919050565b60006200085a601f8362000980565b91507f45524332303a206d696e7420746f20746865207a65726f2061646472657373006000830152602082019050919050565b6200089881620009c5565b82525050565b60006020820190508181036000830152620008b9816200075f565b9050919050565b60006020820190508181036000830152620008db81620007c7565b9050919050565b60006020820190508181036000830152620008fd8162000809565b9050919050565b600060208201905081810360008301526200091f816200084b565b9050919050565b60006020820190506200093d60008301846200088d565b92915050565b60006060820190506200095a60008301866200088d565b6200096960208301856200074e565b6200097860408301846200088d565b949350505050565b600082825260208201905092915050565b60006200099e82620009a5565b9050919050565b600073ffffffffffffffffffffffffffffffffffffffff82169050919050565b6000819050919050565b620009da81620009c5565b8114620009e657600080fd5b50565b612fa880620009f96000396000f3fe608060405234801561001057600080fd5b50600436106101585760003560e01c80638da5cb5b116100c3578063a9059cbb1161007c578063a9059cbb146103ef578063c08cc02d1461041f578063c7f758a81461043d578063dd62ed3e14610472578063e23a9a52146104a2578063f2fde38b146104d257610158565b80638da5cb5b1461031957806395d89b411461033757806398041ea314610355578063997072f714610371578063a230c5241461038f578063a457c2d7146103bf57610158565b8063313ce56711610115578063313ce56714610231578063395093511461024f5780633e4f49e61461027f57806349c2a1a6146102af57806370a08231146102df578063715018a61461030f57610158565b806306fdde031461015d578063095ea7b31461017b5780630b1ca49a146101ab57806315373e3d146101c757806318160ddd146101e357806323b872dd14610201575b600080fd5b6101656104ee565b6040516101729190612aa6565b60405180910390f35b610195600480360361019091908101906122b6565b610590565b6040516101a29190612a70565b60405180910390f35b6101c560048036036101c09190810190612202565b6105ae565b005b6101e160048036036101dc919081019061239c565b610661565b005b6101eb610868565b6040516101f89190612ca3565b60405180910390f35b61021b60048036036102169190810190612267565b610872565b6040516102289190612a70565b60405180910390f35b61023961094b565b6040516102469190612d51565b60405180910390f35b610269600480360361026491908101906122b6565b610962565b6040516102769190612a70565b60405180910390f35b61029960048036036102949190810190612337565b610a15565b6040516102a69190612a8b565b60405180910390f35b6102c960048036036102c491908101906122f2565b610ac9565b6040516102d69190612ca3565b60405180910390f35b6102f960048036036102f49190810190612202565b610d01565b6040516103069190612ca3565b60405180910390f35b610317610d4a565b005b610321610e9f565b60405161032e91906129a8565b60405180910390f35b61033f610ec8565b60405161034c9190612aa6565b60405180910390f35b61036f600480360361036a91908101906122b6565b610f6a565b005b6103796110a3565b6040516103869190612ca3565b60405180910390f35b6103a960048036036103a49190810190612202565b6110ad565b6040516103b69190612a70565b60405180910390f35b6103d960048036036103d491908101906122b6565b6110c1565b6040516103e69190612a70565b60405180910390f35b610409600480360361040491908101906122b6565b61118e565b6040516104169190612a70565b60405180910390f35b6104276111ac565b6040516104349190612ca3565b60405180910390f35b61045760048036036104529190810190612337565b6111b6565b60405161046996959493929190612a08565b60405180910390f35b61048c6004803603610487919081019061222b565b611349565b6040516104999190612ca3565b60405180910390f35b6104bc60048036036104b79190810190612360565b6113d0565b6040516104c99190612c88565b60405180910390f35b6104ec60048036036104e79190810190612202565b61147e565b005b606060048054600181600116156101000203166002900480601f0160208091040260200160405190810160405280929190818152602001828054600181600116156101000203166002900480156105865780601f1061055b57610100808354040283529160200191610586565b820191906000526020600020905b81548152906001019060200180831161056957829003601f168201915b5050505050905090565b60006105a461059d611642565b848461164a565b6001905092915050565b6105b6611642565b73ffffffffffffffffffffffffffffffffffffffff166000809054906101000a900473ffffffffffffffffffffffffffffffffffffffff1673ffffffffffffffffffffffffffffffffffffffff1614610644576040517f08c379a000000000000000000000000000000000000000000000000000000000815260040161063b90612ba8565b60405180910390fd5b6106568161065183610d01565b611815565b61065e6119c5565b50565b6001600481111561066e57fe5b61067783610a15565b600481111561068257fe5b146106c2576040517f08c379a00000000000000000000000000000000000000000000000000000000081526004016106b990612c48565b60405180910390fd5b600060076000848152602001908152602001600020905060008160070160006106e9611642565b73ffffffffffffffffffffffffffffffffffffffff1673ffffffffffffffffffffffffffffffffffffffff1681526020019081526020016000209050600015158160000160009054906101000a900460ff1615151461077d576040517f08c379a000000000000000000000000000000000000000000000000000000000815260040161077490612b88565b60405180910390fd5b600061078f61078a611642565b610d01565b905083156107bb576107ae818460050154611a7090919063ffffffff16565b83600501819055506107db565b6107d2818460060154611a7090919063ffffffff16565b83600601819055505b60018260000160006101000a81548160ff021916908315150217905550838260000160016101000a81548160ff0219169083151502179055508082600101819055507fd388bceb969b9a332d7321cf1bd5badec45b48dd92e5b986e5f2e258619e8adf610846611642565b86868460405161085994939291906129c3565b60405180910390a15050505050565b6000600354905090565b600061087f848484611ac5565b6109408461088b611642565b61093b85604051806060016040528060288152602001612f2660289139600260008b73ffffffffffffffffffffffffffffffffffffffff1673ffffffffffffffffffffffffffffffffffffffff16815260200190815260200160002060006108f1611642565b73ffffffffffffffffffffffffffffffffffffffff1673ffffffffffffffffffffffffffffffffffffffff16815260200190815260200160002054611d5e9092919063ffffffff16565b61164a565b600190509392505050565b6000600660009054906101000a900460ff16905090565b6000610a0b61096f611642565b84610a068560026000610980611642565b73ffffffffffffffffffffffffffffffffffffffff1673ffffffffffffffffffffffffffffffffffffffff16815260200190815260200160002060008973ffffffffffffffffffffffffffffffffffffffff1673ffffffffffffffffffffffffffffffffffffffff16815260200190815260200160002054611a7090919063ffffffff16565b61164a565b6001905092915050565b60008160085410158015610a295750600082115b610a68576040517f08c379a0000000000000000000000000000000000000000000000000000000008152600401610a5f90612b68565b60405180910390fd5b600060076000848152602001908152602001600020905080600301544311610a94576000915050610ac4565b80600401544311610aa9576001915050610ac4565b8060060154816005015411610ac2576002915050610ac4565b505b919050565b6000610adb610ad6611642565b6110ad565b610b1a576040517f08c379a0000000000000000000000000000000000000000000000000000000008152600401610b1190612bc8565b60405180910390fd5b6000610b30600043611a7090919063ffffffff16565b90506000610b48600a83611a7090919063ffffffff16565b9050610b52611db9565b610b5a61205c565b6040518060e001604052806008548152602001610b75611642565b73ffffffffffffffffffffffffffffffffffffffff16815260200187878080601f016020809104026020016040519081016040528093929190818152602001838380828437600081840152601f19601f82011690508083019250505050505050815260200184815260200183815260200160008152602001600081525090508060076000836000015181526020019081526020016000206000820151816000015560208201518160010160006101000a81548173ffffffffffffffffffffffffffffffffffffffff021916908373ffffffffffffffffffffffffffffffffffffffff1602179055506040820151816002019080519060200190610c799291906120af565b50606082015181600301556080820151816004015560a0820151816005015560c082015181600601559050507f6c98a8c940418b35614f0cd02412d5c9606faff474cbb6cdd6640ba5d1a9f06b8160000151610cd3611642565b88888787604051610ce996959493929190612cbe565b60405180910390a18060000151935050505092915050565b6000600160008373ffffffffffffffffffffffffffffffffffffffff1673ffffffffffffffffffffffffffffffffffffffff168152602001908152602001600020549050919050565b610d52611642565b73ffffffffffffffffffffffffffffffffffffffff166000809054906101000a900473ffffffffffffffffffffffffffffffffffffffff1673ffffffffffffffffffffffffffffffffffffffff1614610de0576040517f08c379a0000000000000000000000000000000000000000000000000000000008152600401610dd790612ba8565b60405180910390fd5b600073ffffffffffffffffffffffffffffffffffffffff166000809054906101000a900473ffffffffffffffffffffffffffffffffffffffff1673ffffffffffffffffffffffffffffffffffffffff167f8be0079c531659141344cd1fd0a4f28419497f9722a3daafe3b4186f6b6457e060405160405180910390a360008060006101000a81548173ffffffffffffffffffffffffffffffffffffffff021916908373ffffffffffffffffffffffffffffffffffffffff160217905550565b60008060009054906101000a900473ffffffffffffffffffffffffffffffffffffffff16905090565b606060058054600181600116156101000203166002900480601f016020809104026020016040519081016040528092919081815260200182805460018160011615610100020316600290048015610f605780601f10610f3557610100808354040283529160200191610f60565b820191906000526020600020905b815481529060010190602001808311610f4357829003601f168201915b5050505050905090565b610f72611642565b73ffffffffffffffffffffffffffffffffffffffff166000809054906101000a900473ffffffffffffffffffffffffffffffffffffffff1673ffffffffffffffffffffffffffffffffffffffff1614611000576040517f08c379a0000000000000000000000000000000000000000000000000000000008152600401610ff790612ba8565b60405180910390fd5b600061100b83610d01565b1461104b576040517f08c379a000000000000000000000000000000000000000000000000000000000815260040161104290612ae8565b60405180910390fd5b6110558282611dcd565b61105d611f63565b7f9c3ef49be63f6a0edfff97a520c2676e3ca4deacd169af5c57a0ea1541b6c68d6110866110a3565b838360405161109793929190612d1a565b60405180910390a15050565b6000600954905090565b6000806110b983610d01565b119050919050565b60006111846110ce611642565b8461117f85604051806060016040528060258152602001612f4e60259139600260006110f8611642565b73ffffffffffffffffffffffffffffffffffffffff1673ffffffffffffffffffffffffffffffffffffffff16815260200190815260200160002060008a73ffffffffffffffffffffffffffffffffffffffff1673ffffffffffffffffffffffffffffffffffffffff16815260200190815260200160002054611d5e9092919063ffffffff16565b61164a565b6001905092915050565b60006111a261119b611642565b8484611ac5565b6001905092915050565b6000600854905090565b600060606000806000806111c861205c565b600760008981526020019081526020016000206040518060e0016040529081600082015481526020016001820160009054906101000a900473ffffffffffffffffffffffffffffffffffffffff1673ffffffffffffffffffffffffffffffffffffffff1673ffffffffffffffffffffffffffffffffffffffff168152602001600282018054600181600116156101000203166002900480601f0160208091040260200160405190810160405280929190818152602001828054600181600116156101000203166002900480156112df5780601f106112b4576101008083540402835291602001916112df565b820191906000526020600020905b8154815290600101906020018083116112c257829003601f168201915b50505050508152602001600382015481526020016004820154815260200160058201548152602001600682015481525050905080602001518160400151826060015183608001518460a001518560c001518494509650965096509650965096505091939550919395565b6000600260008473ffffffffffffffffffffffffffffffffffffffff1673ffffffffffffffffffffffffffffffffffffffff16815260200190815260200160002060008373ffffffffffffffffffffffffffffffffffffffff1673ffffffffffffffffffffffffffffffffffffffff16815260200190815260200160002054905092915050565b6113d861212f565b6007600084815260200190815260200160002060070160008373ffffffffffffffffffffffffffffffffffffffff1673ffffffffffffffffffffffffffffffffffffffff1681526020019081526020016000206040518060600160405290816000820160009054906101000a900460ff161515151581526020016000820160019054906101000a900460ff16151515158152602001600182015481525050905092915050565b611486611642565b73ffffffffffffffffffffffffffffffffffffffff166000809054906101000a900473ffffffffffffffffffffffffffffffffffffffff1673ffffffffffffffffffffffffffffffffffffffff1614611514576040517f08c379a000000000000000000000000000000000000000000000000000000000815260040161150b90612ba8565b60405180910390fd5b600073ffffffffffffffffffffffffffffffffffffffff168173ffffffffffffffffffffffffffffffffffffffff161415611584576040517f08c379a000000000000000000000000000000000000000000000000000000000815260040161157b90612b08565b60405180910390fd5b8073ffffffffffffffffffffffffffffffffffffffff166000809054906101000a900473ffffffffffffffffffffffffffffffffffffffff1673ffffffffffffffffffffffffffffffffffffffff167f8be0079c531659141344cd1fd0a4f28419497f9722a3daafe3b4186f6b6457e060405160405180910390a3806000806101000a81548173ffffffffffffffffffffffffffffffffffffffff021916908373ffffffffffffffffffffffffffffffffffffffff16021790555050565b600033905090565b600073ffffffffffffffffffffffffffffffffffffffff168373ffffffffffffffffffffffffffffffffffffffff1614156116ba576040517f08c379a00000000000000000000000000000000000000000000000000000000081526004016116b190612c28565b60405180910390fd5b600073ffffffffffffffffffffffffffffffffffffffff168273ffffffffffffffffffffffffffffffffffffffff16141561172a576040517f08c379a000000000000000000000000000000000000000000000000000000000815260040161172190612b28565b60405180910390fd5b80600260008573ffffffffffffffffffffffffffffffffffffffff1673ffffffffffffffffffffffffffffffffffffffff16815260200190815260200160002060008473ffffffffffffffffffffffffffffffffffffffff1673ffffffffffffffffffffffffffffffffffffffff168152602001908152602001600020819055508173ffffffffffffffffffffffffffffffffffffffff168373ffffffffffffffffffffffffffffffffffffffff167f8c5be1e5ebec7d5bd14f71427d1e84f3dd0314c0f7b2291e5b200ac8c7c3b925836040516118089190612ca3565b60405180910390a3505050565b600073ffffffffffffffffffffffffffffffffffffffff168273ffffffffffffffffffffffffffffffffffffffff161415611885576040517f08c379a000000000000000000000000000000000000000000000000000000000815260040161187c90612be8565b60405180910390fd5b6118918260008361200d565b6118fd81604051806060016040528060228152602001612ede60229139600160008673ffffffffffffffffffffffffffffffffffffffff1673ffffffffffffffffffffffffffffffffffffffff16815260200190815260200160002054611d5e9092919063ffffffff16565b600160008473ffffffffffffffffffffffffffffffffffffffff1673ffffffffffffffffffffffffffffffffffffffff168152602001908152602001600020819055506119558160035461201290919063ffffffff16565b600381905550600073ffffffffffffffffffffffffffffffffffffffff168273ffffffffffffffffffffffffffffffffffffffff167fddf252ad1be2c89b69c2b068fc378daa952ba7f163c4a11628f55a4df523b3ef836040516119b99190612ca3565b60405180910390a35050565b6119cd611642565b73ffffffffffffffffffffffffffffffffffffffff166000809054906101000a900473ffffffffffffffffffffffffffffffffffffffff1673ffffffffffffffffffffffffffffffffffffffff1614611a5b576040517f08c379a0000000000000000000000000000000000000000000000000000000008152600401611a5290612ba8565b60405180910390fd5b60096000815480929190600190039190505550565b600080828401905083811015611abb576040517f08c379a0000000000000000000000000000000000000000000000000000000008152600401611ab290612b48565b60405180910390fd5b8091505092915050565b600073ffffffffffffffffffffffffffffffffffffffff168373ffffffffffffffffffffffffffffffffffffffff161415611b35576040517f08c379a0000000000000000000000000000000000000000000000000000000008152600401611b2c90612c08565b60405180910390fd5b600073ffffffffffffffffffffffffffffffffffffffff168273ffffffffffffffffffffffffffffffffffffffff161415611ba5576040517f08c379a0000000000000000000000000000000000000000000000000000000008152600401611b9c90612ac8565b60405180910390fd5b611bb083838361200d565b611c1c81604051806060016040528060268152602001612f0060269139600160008773ffffffffffffffffffffffffffffffffffffffff1673ffffffffffffffffffffffffffffffffffffffff16815260200190815260200160002054611d5e9092919063ffffffff16565b600160008573ffffffffffffffffffffffffffffffffffffffff1673ffffffffffffffffffffffffffffffffffffffff16815260200190815260200160002081905550611cb181600160008573ffffffffffffffffffffffffffffffffffffffff1673ffffffffffffffffffffffffffffffffffffffff16815260200190815260200160002054611a7090919063ffffffff16565b600160008473ffffffffffffffffffffffffffffffffffffffff1673ffffffffffffffffffffffffffffffffffffffff168152602001908152602001600020819055508173ffffffffffffffffffffffffffffffffffffffff168373ffffffffffffffffffffffffffffffffffffffff167fddf252ad1be2c89b69c2b068fc378daa952ba7f163c4a11628f55a4df523b3ef83604051611d519190612ca3565b60405180910390a3505050565b6000838311158290611da6576040517f08c379a0000000000000000000000000000000000000000000000000000000008152600401611d9d9190612aa6565b60405180910390fd5b5060008385039050809150509392505050565b600860008154809291906001019190505550565b600073ffffffffffffffffffffffffffffffffffffffff168273ffffffffffffffffffffffffffffffffffffffff161415611e3d576040517f08c379a0000000000000000000000000000000000000000000000000000000008152600401611e3490612c68565b60405180910390fd5b611e496000838361200d565b611e5e81600354611a7090919063ffffffff16565b600381905550611eb681600160008573ffffffffffffffffffffffffffffffffffffffff1673ffffffffffffffffffffffffffffffffffffffff16815260200190815260200160002054611a7090919063ffffffff16565b600160008473ffffffffffffffffffffffffffffffffffffffff1673ffffffffffffffffffffffffffffffffffffffff168152602001908152602001600020819055508173ffffffffffffffffffffffffffffffffffffffff16600073ffffffffffffffffffffffffffffffffffffffff167fddf252ad1be2c89b69c2b068fc378daa952ba7f163c4a11628f55a4df523b3ef83604051611f579190612ca3565b60405180910390a35050565b611f6b611642565b73ffffffffffffffffffffffffffffffffffffffff166000809054906101000a900473ffffffffffffffffffffffffffffffffffffffff1673ffffffffffffffffffffffffffffffffffffffff1614611ff9576040517f08c379a0000000000000000000000000000000000000000000000000000000008152600401611ff090612ba8565b60405180910390fd5b600960008154809291906001019190505550565b505050565b600061205483836040518060400160405280601e81526020017f536166654d6174683a207375627472616374696f6e206f766572666c6f770000815250611d5e565b905092915050565b6040518060e0016040528060008152602001600073ffffffffffffffffffffffffffffffffffffffff16815260200160608152602001600081526020016000815260200160008152602001600081525090565b828054600181600116156101000203166002900490600052602060002090601f016020900481019282601f106120f057805160ff191683800117855561211e565b8280016001018555821561211e579182015b8281111561211d578251825591602001919060010190612102565b5b50905061212b9190612154565b5090565b6040518060600160405280600015158152602001600015158152602001600081525090565b61217691905b8082111561217257600081600090555060010161215a565b5090565b90565b60008135905061218881612e98565b92915050565b60008135905061219d81612eaf565b92915050565b60008083601f8401126121b557600080fd5b8235905067ffffffffffffffff8111156121ce57600080fd5b6020830191508360018202830111156121e657600080fd5b9250929050565b6000813590506121fc81612ec6565b92915050565b60006020828403121561221457600080fd5b600061222284828501612179565b91505092915050565b6000806040838503121561223e57600080fd5b600061224c85828601612179565b925050602061225d85828601612179565b9150509250929050565b60008060006060848603121561227c57600080fd5b600061228a86828701612179565b935050602061229b86828701612179565b92505060406122ac868287016121ed565b9150509250925092565b600080604083850312156122c957600080fd5b60006122d785828601612179565b92505060206122e8858286016121ed565b9150509250929050565b6000806020838503121561230557600080fd5b600083013567ffffffffffffffff81111561231f57600080fd5b61232b858286016121a3565b92509250509250929050565b60006020828403121561234957600080fd5b6000612357848285016121ed565b91505092915050565b6000806040838503121561237357600080fd5b6000612381858286016121ed565b925050602061239285828601612179565b9150509250929050565b600080604083850312156123af57600080fd5b60006123bd858286016121ed565b92505060206123ce8582860161218e565b9150509250929050565b6123e181612df0565b82525050565b6123f081612d88565b82525050565b6123ff81612d9a565b82525050565b61240e81612d9a565b82525050565b61241d81612e02565b82525050565b600061242f8385612d77565b935061243c838584612e38565b61244583612e7a565b840190509392505050565b600061245b82612d6c565b6124658185612d77565b9350612475818560208601612e47565b61247e81612e7a565b840191505092915050565b6000612496602383612d77565b91507f45524332303a207472616e7366657220746f20746865207a65726f206164647260008301527f65737300000000000000000000000000000000000000000000000000000000006020830152604082019050919050565b60006124fc602483612d77565b91507f5573657220697320616c72656164792061206d656d626572206f66207468697360008301527f2044414f000000000000000000000000000000000000000000000000000000006020830152604082019050919050565b6000612562602683612d77565b91507f4f776e61626c653a206e6577206f776e657220697320746865207a65726f206160008301527f64647265737300000000000000000000000000000000000000000000000000006020830152604082019050919050565b60006125c8602283612d77565b91507f45524332303a20617070726f766520746f20746865207a65726f20616464726560008301527f73730000000000000000000000000000000000000000000000000000000000006020830152604082019050919050565b600061262e601b83612d77565b91507f536166654d6174683a206164646974696f6e206f766572666c6f7700000000006000830152602082019050919050565b600061266e601383612d77565b91507f496e76616c69642070726f706f73616c206964000000000000000000000000006000830152602082019050919050565b60006126ae601383612d77565b91507f566f74657220616c726561647920766f746564000000000000000000000000006000830152602082019050919050565b60006126ee602083612d77565b91507f4f776e61626c653a2063616c6c6572206973206e6f7420746865206f776e65726000830152602082019050919050565b600061272e602583612d77565b91507f6d73672e73656e6465722069736e27742061206d656d626572206f662074686960008301527f732044414f0000000000000000000000000000000000000000000000000000006020830152604082019050919050565b6000612794602183612d77565b91507f45524332303a206275726e2066726f6d20746865207a65726f2061646472657360008301527f73000000000000000000000000000000000000000000000000000000000000006020830152604082019050919050565b60006127fa602583612d77565b91507f45524332303a207472616e736665722066726f6d20746865207a65726f20616460008301527f64726573730000000000000000000000000000000000000000000000000000006020830152604082019050919050565b6000612860602483612d77565b91507f45524332303a20617070726f76652066726f6d20746865207a65726f2061646460008301527f72657373000000000000000000000000000000000000000000000000000000006020830152604082019050919050565b60006128c6601083612d77565b91507f566f74696e6720697320636c6f736564000000000000000000000000000000006000830152602082019050919050565b6000612906601f83612d77565b91507f45524332303a206d696e7420746f20746865207a65726f2061646472657373006000830152602082019050919050565b60608201600082015161294f60008501826123f6565b50602082015161296260208501826123f6565b506040820151612975604085018261297b565b50505050565b61298481612dd9565b82525050565b61299381612dd9565b82525050565b6129a281612de3565b82525050565b60006020820190506129bd60008301846123e7565b92915050565b60006080820190506129d860008301876123d8565b6129e5602083018661298a565b6129f26040830185612405565b6129ff606083018461298a565b95945050505050565b600060c082019050612a1d60008301896123e7565b8181036020830152612a2f8188612450565b9050612a3e604083018761298a565b612a4b606083018661298a565b612a58608083018561298a565b612a6560a083018461298a565b979650505050505050565b6000602082019050612a856000830184612405565b92915050565b6000602082019050612aa06000830184612414565b92915050565b60006020820190508181036000830152612ac08184612450565b905092915050565b60006020820190508181036000830152612ae181612489565b9050919050565b60006020820190508181036000830152612b01816124ef565b9050919050565b60006020820190508181036000830152612b2181612555565b9050919050565b60006020820190508181036000830152612b41816125bb565b9050919050565b60006020820190508181036000830152612b6181612621565b9050919050565b60006020820190508181036000830152612b8181612661565b9050919050565b60006020820190508181036000830152612ba1816126a1565b9050919050565b60006020820190508181036000830152612bc1816126e1565b9050919050565b60006020820190508181036000830152612be181612721565b9050919050565b60006020820190508181036000830152612c0181612787565b9050919050565b60006020820190508181036000830152612c21816127ed565b9050919050565b60006020820190508181036000830152612c4181612853565b9050919050565b60006020820190508181036000830152612c61816128b9565b9050919050565b60006020820190508181036000830152612c81816128f9565b9050919050565b6000606082019050612c9d6000830184612939565b92915050565b6000602082019050612cb8600083018461298a565b92915050565b600060a082019050612cd3600083018961298a565b612ce060208301886123d8565b8181036040830152612cf3818688612423565b9050612d02606083018561298a565b612d0f608083018461298a565b979650505050505050565b6000606082019050612d2f600083018661298a565b612d3c60208301856123e7565b612d49604083018461298a565b949350505050565b6000602082019050612d666000830184612999565b92915050565b600081519050919050565b600082825260208201905092915050565b6000612d9382612db9565b9050919050565b60008115159050919050565b6000819050612db482612e8b565b919050565b600073ffffffffffffffffffffffffffffffffffffffff82169050919050565b6000819050919050565b600060ff82169050919050565b6000612dfb82612e14565b9050919050565b6000612e0d82612da6565b9050919050565b6000612e1f82612e26565b9050919050565b6000612e3182612db9565b9050919050565b82818337600083830152505050565b60005b83811015612e65578082015181840152602081019050612e4a565b83811115612e74576000848401525b50505050565b6000601f19601f8301169050919050565b60058110612e9557fe5b50565b612ea181612d88565b8114612eac57600080fd5b50565b612eb881612d9a565b8114612ec357600080fd5b50565b612ecf81612dd9565b8114612eda57600080fd5b5056fe45524332303a206275726e20616d6f756e7420657863656564732062616c616e636545524332303a207472616e7366657220616d6f756e7420657863656564732062616c616e636545524332303a207472616e7366657220616d6f756e74206578636565647320616c6c6f77616e636545524332303a2064656372656173656420616c6c6f77616e63652062656c6f77207a65726fa26469706673582212204adcc4a93fdb548871ecf2760a0902776414eb0e617468003ed534df29d3680864736f6c63430006020033",
  "source": "// SPDX-License-Identifier: MIT\npragma solidity ^0.6.2;\npragma experimental ABIEncoderV2;\n\nimport \"@openzeppelin/contracts/access/Ownable.sol\";\nimport \"@openzeppelin/contracts/token/ERC20/ERC20.sol\";\n\ncontract Mwdao is Ownable, ERC20 {\n\n  // #### I. ATTRIBUTES ####\n\n  mapping(uint256 => Proposal) private proposals;\n\n  uint256 private proposalCount = 0;\n  uint256 private memberCount   = 0;\n\n  struct Proposal {\n    // @notice Unique id for looking up a proposal\n    uint256 id;\n\n    // @notice Creator of the proposal\n    address proposer;\n\n    // @notice Proposal description\n    string description;\n\n    // @notice the ordered list of target addresses for calls to be made\n    // address[] targets;\n\n    // @notice The ordered list of values (i.e. msg.value) to be passed to the calls to be made\n    // uint[] values;\n\n    // @notice The block at which voting begins: holders must delegate their votes prior to this block\n    uint256 startBlock;\n\n    // @notice The block at which voting ends: votes must be cast prior to this block\n    uint256 endBlock;\n\n    // @notice Current number of votes in favor of this proposal\n    uint256 forVotes;\n\n    // @notice Current number of votes in opposition to this proposal\n    uint256 againstVotes;\n\n    // @notice Flag marking whether the proposal has been executed\n    // bool executed;\n\n    // @notice Set of all voters for this proposal\n    mapping (address => Receipt) receipts;\n  }\n\n  // @notice Ballot receipt record for a voter\n  struct Receipt {\n    // @notice Whether or not a vote has been cast\n    bool hasVoted;\n\n    // @notice Whether or not the voter supports the proposal\n    bool support;\n\n    // @notice The number of votes the voter had, which were cast\n    uint256 votes;\n  }\n\n  // @notice Possible states that a proposal may be in\n  enum ProposalState {\n      Pending,\n      Active,\n      Defeated,\n      Succeeded,\n      Executed\n  }\n\n  // #### II. EVENTS ####\n\n  // @notice An event emitted when a new proposal is created\n  event MemberAdded(uint256 id, address member, uint256 token);\n\n  // @notice An event emitted when a new proposal is created\n  event ProposalCreated(uint256 id, address proposer, string description, uint256 startBlock, uint256 endBlock);\n\n  // @notice An event emitted when a vote has been cast on a proposal\n  event VoteCasted(address voter, uint256 proposalId, bool support, uint256 votes);\n\n  // #### III. CONSTRUCTOR ####\n\n  constructor(uint256 initalToken) public ERC20(\"MaibornWolff Governance Token\", \"MWG\") {\n    addMember(_msgSender(), initalToken);\n  }\n\n  // #### IV. FUNCTIONS ####\n\n  function addMember(address member, uint256 token) public onlyOwner {\n    require(balanceOf(member) == 0, \"User is already a member of this DAO\");\n\n    _mint(member, token);\n    incrementMemberCount();\n\n    emit MemberAdded(\n      getMemberCount(),\n      member,\n      token\n    );\n  }\n\n  function removeMember(address member) external onlyOwner {\n    _burn(member, balanceOf(member));\n    decrementMemberCount();\n  }\n\n  function createProposal(string calldata description) external returns(uint256 proposalId) {\n    require(isMember(_msgSender()), \"msg.sender isn't a member of this DAO\");\n\n    uint256 startBlock = block.number.add(0);\n    uint256 endBlock = startBlock.add(10);\n\n    incrementProposalCount();\n\n    Proposal memory newProposal = Proposal({\n      id: proposalCount,\n      proposer: _msgSender(),\n      description: description,\n      // targets: targets,\n      startBlock: startBlock,\n      endBlock: endBlock,\n      forVotes: 0,\n      againstVotes: 0\n    });\n\n    proposals[newProposal.id] = newProposal;\n\n    emit ProposalCreated(\n      newProposal.id,\n      _msgSender(),\n      description,\n      // targets,\n      startBlock,\n      endBlock\n    );\n\n    return newProposal.id;\n  }\n\n  function castVote(uint256 proposalId, bool support) external {\n    require(state(proposalId) == ProposalState.Active, \"Voting is closed\");\n\n    Proposal storage proposal = proposals[proposalId];\n    Receipt storage receipt = proposal.receipts[_msgSender()]; //getReceipt();\n\n    require(receipt.hasVoted == false, \"Voter already voted\");\n\n    uint256 votes = balanceOf(_msgSender());\n\n    if (support) {\n      proposal.forVotes = proposal.forVotes.add(votes);\n    } else {\n      proposal.againstVotes = proposal.againstVotes.add(votes);\n    }\n\n    receipt.hasVoted = true;\n    receipt.support = support;\n    receipt.votes = votes;\n\n    emit VoteCasted(_msgSender(), proposalId, support, votes);\n  }\n\n  function state(uint256 proposalId) public view returns (ProposalState) {\n    require(proposalCount >= proposalId && proposalId > 0, \"Invalid proposal id\");\n\n    Proposal storage proposal = proposals[proposalId];\n\n    if (block.number <= proposal.startBlock) {\n      return ProposalState.Pending;\n    } else if (block.number <= proposal.endBlock) {\n      return ProposalState.Active;\n    } else if (proposal.forVotes <= proposal.againstVotes) {\n      return ProposalState.Defeated;\n    }\n  }\n\n  // #### V. GETTER ####\n\n  function getMemberCount() public view returns (uint256 count) { return memberCount; }\n  function getProposalCount() public view returns (uint256 count) { return proposalCount; }\n\n  function getProposal(uint256 id) public view returns (\n    address proposer,\n    string memory description,\n    uint256 startBlock,\n    uint256 endBlock,\n    uint256 forVotes,\n    uint256 againstVotes\n  )\n  {\n    Proposal memory proposal = proposals[id];\n\n    return(\n      proposal.proposer,\n      proposal.description,\n      proposal.startBlock,\n      proposal.endBlock,\n      proposal.forVotes,\n      proposal.againstVotes\n    );\n  }\n\n  function getReceipt(uint256 proposalId, address voter) public view returns (Receipt memory receipt) {\n    return proposals[proposalId].receipts[voter];\n  }\n\n  // #### VI. HELPER ####\n\n  function incrementMemberCount() internal onlyOwner { memberCount++; }\n  function decrementMemberCount() internal onlyOwner { memberCount--; }\n  function incrementProposalCount() internal { proposalCount++; }\n\n  function isMember(address _member) public view returns(bool member) {\n    return balanceOf(_member) > 0;\n  }\n}\n",
  "sourcePath": "/Users/renem/Work/projects/fe-dao/mwdao-contracts/contracts/mwdao.sol",
  "compiler": {
    "name": "solc",
    "version": "0.6.2+commit.bacdbe57.Emscripten.clang"
  },
  "schemaVersion": "3.3.2",
  "updatedAt": "2020-11-28T23:32:22.160Z",
  "networkType": "ethereum",
  "devdoc": {
    "methods": {
      "allowance(address,address)": {
        "details": "See {IERC20-allowance}."
      },
      "approve(address,uint256)": {
        "details": "See {IERC20-approve}.     * Requirements:     * - `spender` cannot be the zero address."
      },
      "balanceOf(address)": {
        "details": "See {IERC20-balanceOf}."
      },
      "decimals()": {
        "details": "Returns the number of decimals used to get its user representation. For example, if `decimals` equals `2`, a balance of `505` tokens should be displayed to a user as `5,05` (`505 / 10 ** 2`).     * Tokens usually opt for a value of 18, imitating the relationship between Ether and Wei. This is the value {ERC20} uses, unless {_setupDecimals} is called.     * NOTE: This information is only used for _display_ purposes: it in no way affects any of the arithmetic of the contract, including {IERC20-balanceOf} and {IERC20-transfer}."
      },
      "decreaseAllowance(address,uint256)": {
        "details": "Atomically decreases the allowance granted to `spender` by the caller.     * This is an alternative to {approve} that can be used as a mitigation for problems described in {IERC20-approve}.     * Emits an {Approval} event indicating the updated allowance.     * Requirements:     * - `spender` cannot be the zero address. - `spender` must have allowance for the caller of at least `subtractedValue`."
      },
      "increaseAllowance(address,uint256)": {
        "details": "Atomically increases the allowance granted to `spender` by the caller.     * This is an alternative to {approve} that can be used as a mitigation for problems described in {IERC20-approve}.     * Emits an {Approval} event indicating the updated allowance.     * Requirements:     * - `spender` cannot be the zero address."
      },
      "name()": {
        "details": "Returns the name of the token."
      },
      "owner()": {
        "details": "Returns the address of the current owner."
      },
      "renounceOwnership()": {
        "details": "Leaves the contract without owner. It will not be possible to call `onlyOwner` functions anymore. Can only be called by the current owner.     * NOTE: Renouncing ownership will leave the contract without an owner, thereby removing any functionality that is only available to the owner."
      },
      "symbol()": {
        "details": "Returns the symbol of the token, usually a shorter version of the name."
      },
      "totalSupply()": {
        "details": "See {IERC20-totalSupply}."
      },
      "transfer(address,uint256)": {
        "details": "See {IERC20-transfer}.     * Requirements:     * - `recipient` cannot be the zero address. - the caller must have a balance of at least `amount`."
      },
      "transferFrom(address,address,uint256)": {
        "details": "See {IERC20-transferFrom}.     * Emits an {Approval} event indicating the updated allowance. This is not required by the EIP. See the note at the beginning of {ERC20};     * Requirements: - `sender` and `recipient` cannot be the zero address. - `sender` must have a balance of at least `amount`. - the caller must have allowance for ``sender``'s tokens of at least `amount`."
      },
      "transferOwnership(address)": {
        "details": "Transfers ownership of the contract to a new account (`newOwner`). Can only be called by the current owner."
      }
    }
  },
  "userdoc": {
    "methods": {}
  }
}