{
  "contractName": "MwdaoCharity2020",
  "abi": [
    {
      "inputs": [
        {
          "internalType": "address",
          "name": "_mwdao",
          "type": "address"
        }
      ],
      "stateMutability": "nonpayable",
      "type": "constructor"
    },
    {
      "anonymous": false,
      "inputs": [
        {
          "indexed": true,
          "internalType": "address",
          "name": "owner",
          "type": "address"
        },
        {
          "indexed": true,
          "internalType": "address",
          "name": "spender",
          "type": "address"
        },
        {
          "indexed": false,
          "internalType": "uint256",
          "name": "value",
          "type": "uint256"
        }
      ],
      "name": "Approval",
      "type": "event"
    },
    {
      "anonymous": false,
      "inputs": [
        {
          "indexed": false,
          "internalType": "address",
          "name": "donor",
          "type": "address"
        },
        {
          "indexed": false,
          "internalType": "uint256",
          "name": "organizationId",
          "type": "uint256"
        },
        {
          "indexed": false,
          "internalType": "uint256",
          "name": "tokens",
          "type": "uint256"
        }
      ],
      "name": "DonationSent",
      "type": "event"
    },
    {
      "anonymous": false,
      "inputs": [
        {
          "indexed": true,
          "internalType": "address",
          "name": "previousOwner",
          "type": "address"
        },
        {
          "indexed": true,
          "internalType": "address",
          "name": "newOwner",
          "type": "address"
        }
      ],
      "name": "OwnershipTransferred",
      "type": "event"
    },
    {
      "anonymous": false,
      "inputs": [
        {
          "indexed": false,
          "internalType": "address",
          "name": "donor",
          "type": "address"
        },
        {
          "indexed": false,
          "internalType": "uint256",
          "name": "token",
          "type": "uint256"
        }
      ],
      "name": "TokensMinted",
      "type": "event"
    },
    {
      "anonymous": false,
      "inputs": [
        {
          "indexed": true,
          "internalType": "address",
          "name": "from",
          "type": "address"
        },
        {
          "indexed": true,
          "internalType": "address",
          "name": "to",
          "type": "address"
        },
        {
          "indexed": false,
          "internalType": "uint256",
          "name": "value",
          "type": "uint256"
        }
      ],
      "name": "Transfer",
      "type": "event"
    },
    {
      "inputs": [
        {
          "internalType": "address",
          "name": "owner",
          "type": "address"
        },
        {
          "internalType": "address",
          "name": "spender",
          "type": "address"
        }
      ],
      "name": "allowance",
      "outputs": [
        {
          "internalType": "uint256",
          "name": "",
          "type": "uint256"
        }
      ],
      "stateMutability": "view",
      "type": "function",
      "constant": true
    },
    {
      "inputs": [
        {
          "internalType": "address",
          "name": "spender",
          "type": "address"
        },
        {
          "internalType": "uint256",
          "name": "amount",
          "type": "uint256"
        }
      ],
      "name": "approve",
      "outputs": [
        {
          "internalType": "bool",
          "name": "",
          "type": "bool"
        }
      ],
      "stateMutability": "nonpayable",
      "type": "function"
    },
    {
      "inputs": [
        {
          "internalType": "address",
          "name": "account",
          "type": "address"
        }
      ],
      "name": "balanceOf",
      "outputs": [
        {
          "internalType": "uint256",
          "name": "",
          "type": "uint256"
        }
      ],
      "stateMutability": "view",
      "type": "function",
      "constant": true
    },
    {
      "inputs": [],
      "name": "decimals",
      "outputs": [
        {
          "internalType": "uint8",
          "name": "",
          "type": "uint8"
        }
      ],
      "stateMutability": "view",
      "type": "function",
      "constant": true
    },
    {
      "inputs": [
        {
          "internalType": "address",
          "name": "spender",
          "type": "address"
        },
        {
          "internalType": "uint256",
          "name": "subtractedValue",
          "type": "uint256"
        }
      ],
      "name": "decreaseAllowance",
      "outputs": [
        {
          "internalType": "bool",
          "name": "",
          "type": "bool"
        }
      ],
      "stateMutability": "nonpayable",
      "type": "function"
    },
    {
      "inputs": [
        {
          "internalType": "address",
          "name": "spender",
          "type": "address"
        },
        {
          "internalType": "uint256",
          "name": "addedValue",
          "type": "uint256"
        }
      ],
      "name": "increaseAllowance",
      "outputs": [
        {
          "internalType": "bool",
          "name": "",
          "type": "bool"
        }
      ],
      "stateMutability": "nonpayable",
      "type": "function"
    },
    {
      "inputs": [],
      "name": "name",
      "outputs": [
        {
          "internalType": "string",
          "name": "",
          "type": "string"
        }
      ],
      "stateMutability": "view",
      "type": "function",
      "constant": true
    },
    {
      "inputs": [],
      "name": "owner",
      "outputs": [
        {
          "internalType": "address",
          "name": "",
          "type": "address"
        }
      ],
      "stateMutability": "view",
      "type": "function",
      "constant": true
    },
    {
      "inputs": [],
      "name": "renounceOwnership",
      "outputs": [],
      "stateMutability": "nonpayable",
      "type": "function"
    },
    {
      "inputs": [],
      "name": "symbol",
      "outputs": [
        {
          "internalType": "string",
          "name": "",
          "type": "string"
        }
      ],
      "stateMutability": "view",
      "type": "function",
      "constant": true
    },
    {
      "inputs": [],
      "name": "totalSupply",
      "outputs": [
        {
          "internalType": "uint256",
          "name": "",
          "type": "uint256"
        }
      ],
      "stateMutability": "view",
      "type": "function",
      "constant": true
    },
    {
      "inputs": [
        {
          "internalType": "address",
          "name": "recipient",
          "type": "address"
        },
        {
          "internalType": "uint256",
          "name": "amount",
          "type": "uint256"
        }
      ],
      "name": "transfer",
      "outputs": [
        {
          "internalType": "bool",
          "name": "",
          "type": "bool"
        }
      ],
      "stateMutability": "nonpayable",
      "type": "function"
    },
    {
      "inputs": [
        {
          "internalType": "address",
          "name": "sender",
          "type": "address"
        },
        {
          "internalType": "address",
          "name": "recipient",
          "type": "address"
        },
        {
          "internalType": "uint256",
          "name": "amount",
          "type": "uint256"
        }
      ],
      "name": "transferFrom",
      "outputs": [
        {
          "internalType": "bool",
          "name": "",
          "type": "bool"
        }
      ],
      "stateMutability": "nonpayable",
      "type": "function"
    },
    {
      "inputs": [
        {
          "internalType": "address",
          "name": "newOwner",
          "type": "address"
        }
      ],
      "name": "transferOwnership",
      "outputs": [],
      "stateMutability": "nonpayable",
      "type": "function"
    },
    {
      "inputs": [],
      "name": "mintToken",
      "outputs": [],
      "stateMutability": "nonpayable",
      "type": "function"
    },
    {
      "inputs": [
        {
          "internalType": "uint256",
          "name": "organizationId",
          "type": "uint256"
        },
        {
          "internalType": "uint256",
          "name": "tokens",
          "type": "uint256"
        }
      ],
      "name": "supportOrganization",
      "outputs": [],
      "stateMutability": "nonpayable",
      "type": "function"
    },
    {
      "inputs": [],
      "name": "getOrganizationCount",
      "outputs": [
        {
          "internalType": "uint256",
          "name": "count",
          "type": "uint256"
        }
      ],
      "stateMutability": "view",
      "type": "function",
      "constant": true
    },
    {
      "inputs": [
        {
          "internalType": "uint256",
          "name": "organizationId",
          "type": "uint256"
        }
      ],
      "name": "getOrganization",
      "outputs": [
        {
          "components": [
            {
              "internalType": "uint256",
              "name": "id",
              "type": "uint256"
            },
            {
              "internalType": "string",
              "name": "name",
              "type": "string"
            },
            {
              "internalType": "uint256",
              "name": "fund",
              "type": "uint256"
            }
          ],
          "internalType": "struct MwdaoCharity2020.Organization",
          "name": "organization",
          "type": "tuple"
        }
      ],
      "stateMutability": "view",
      "type": "function",
      "constant": true
    }
  ],
  "bytecode": "0x608060405260006009553480156200001657600080fd5b5060405162002d6438038062002d6483398181016040526200003c9190810190620005ed565b6040518060400160405280601881526020017f4d5744414f2043686172697479203230323020546f6b656e00000000000000008152506040518060400160405280600381526020017f4d574300000000000000000000000000000000000000000000000000000000008152506000620000ba6200047a60201b60201c565b9050806000806101000a81548173ffffffffffffffffffffffffffffffffffffffff021916908373ffffffffffffffffffffffffffffffffffffffff1602179055508073ffffffffffffffffffffffffffffffffffffffff16600073ffffffffffffffffffffffffffffffffffffffff167f8be0079c531659141344cd1fd0a4f28419497f9722a3daafe3b4186f6b6457e060405160405180910390a350816004908051906020019062000170929190620004a0565b50806005908051906020019062000189929190620004a0565b506012600660006101000a81548160ff021916908360ff160217905550505080600660016101000a81548173ffffffffffffffffffffffffffffffffffffffff021916908373ffffffffffffffffffffffffffffffffffffffff160217905550620001fb60006200048260201b60201c565b6040518060600160405280600181526020016040518060400160405280601681526020017f4672616e6b20506f6c73746572205374696674756e67000000000000000000008152508152602001600081525060076000600181526020019081526020016000206000820151816000015560208201518160010190805190602001906200028992919062000527565b50604082015181600201559050506040518060600160405280600281526020016040518060400160405280601581526020017f42696c6c20476174657320666f756e646174696f6e00000000000000000000008152508152602001600081525060076000600281526020019081526020016000206000820151816000015560208201518160010190805190602001906200032592919062000527565b50604082015181600201559050506040518060600160405280600381526020016040518060400160405280601281526020017f5468697264206f7267616e697a6174696f6e0000000000000000000000000000815250815260200160008152506007600060038152602001908152602001600020600082015181600001556020820151816001019080519060200190620003c192919062000527565b50604082015181600201559050506040518060600160405280600481526020016040518060400160405280600c81526020017f416e6420736f206f6e2e2e2e00000000000000000000000000000000000000008152508152602001600081525060076000600481526020019081526020016000206000820151816000015560208201518160010190805190602001906200045d92919062000527565b506040820151816002015590505060046009819055505062000667565b600033905090565b80600660006101000a81548160ff021916908360ff16021790555050565b828054600181600116156101000203166002900490600052602060002090601f016020900481019282601f10620004e357805160ff191683800117855562000514565b8280016001018555821562000514579182015b8281111562000513578251825591602001919060010190620004f6565b5b509050620005239190620005ae565b5090565b828054600181600116156101000203166002900490600052602060002090601f016020900481019282601f106200056a57805160ff19168380011785556200059b565b828001600101855582156200059b579182015b828111156200059a5782518255916020019190600101906200057d565b5b509050620005aa9190620005ae565b5090565b620005d391905b80821115620005cf576000816000905550600101620005b5565b5090565b90565b600081519050620005e7816200064d565b92915050565b6000602082840312156200060057600080fd5b60006200061084828501620005d6565b91505092915050565b600062000626826200062d565b9050919050565b600073ffffffffffffffffffffffffffffffffffffffff82169050919050565b620006588162000619565b81146200066457600080fd5b50565b6126ed80620006776000396000f3fe608060405234801561001057600080fd5b50600436106101165760003560e01c80635734e5e3116100a257806395d89b411161007157806395d89b41146102d1578063a457c2d7146102ef578063a9059cbb1461031f578063dd62ed3e1461034f578063f2fde38b1461037f57610116565b80635734e5e31461025b57806370a0823114610279578063715018a6146102a95780638da5cb5b146102b357610116565b806323b872dd116100e957806323b872dd146101915780632f6d3957146101c1578063313ce567146101dd57806339509351146101fb5780634526f6901461022b57610116565b806306fdde031461011b578063095ea7b31461013957806318160ddd146101695780632004ffd914610187575b600080fd5b61012361039b565b604051610130919061228a565b60405180910390f35b610153600480360361014e9190810190611b0e565b61043d565b604051610160919061226f565b60405180910390f35b61017161045b565b60405161017e919061248e565b60405180910390f35b61018f610465565b005b6101ab60048036036101a69190810190611abf565b61069e565b6040516101b8919061226f565b60405180910390f35b6101db60048036036101d69190810190611b9c565b610777565b005b6101e5610983565b6040516101f291906124a9565b60405180910390f35b61021560048036036102109190810190611b0e565b61099a565b604051610222919061226f565b60405180910390f35b61024560048036036102409190810190611b73565b610a4d565b604051610252919061246c565b60405180910390f35b610263610b30565b604051610270919061248e565b60405180910390f35b610293600480360361028e9190810190611a5a565b610b3a565b6040516102a0919061248e565b60405180910390f35b6102b1610b83565b005b6102bb610cd8565b6040516102c891906121d9565b60405180910390f35b6102d9610d01565b6040516102e6919061228a565b60405180910390f35b61030960048036036103049190810190611b0e565b610da3565b604051610316919061226f565b60405180910390f35b61033960048036036103349190810190611b0e565b610e70565b604051610346919061226f565b60405180910390f35b61036960048036036103649190810190611a83565b610e8e565b604051610376919061248e565b60405180910390f35b61039960048036036103949190810190611a5a565b610f15565b005b606060048054600181600116156101000203166002900480601f0160208091040260200160405190810160405280929190818152602001828054600181600116156101000203166002900480156104335780601f1061040857610100808354040283529160200191610433565b820191906000526020600020905b81548152906001019060200180831161041657829003601f168201915b5050505050905090565b600061045161044a6110d9565b84846110e1565b6001905092915050565b6000600354905090565b600660019054906101000a900473ffffffffffffffffffffffffffffffffffffffff1673ffffffffffffffffffffffffffffffffffffffff1663a230c5246104ab6110d9565b6040518263ffffffff1660e01b81526004016104c791906121f4565b60206040518083038186803b1580156104df57600080fd5b505afa1580156104f3573d6000803e3d6000fd5b505050506040513d601f19601f820116820180604052506105179190810190611b4a565b610556576040517f08c379a000000000000000000000000000000000000000000000000000000000815260040161054d9061236c565b60405180910390fd5b600860006105626110d9565b73ffffffffffffffffffffffffffffffffffffffff1673ffffffffffffffffffffffffffffffffffffffff16815260200190815260200160002060009054906101000a900460ff16156105ea576040517f08c379a00000000000000000000000000000000000000000000000000000000081526004016105e19061232c565b60405180910390fd5b6105fc6105f56110d9565b60046112ac565b60016008600061060a6110d9565b73ffffffffffffffffffffffffffffffffffffffff1673ffffffffffffffffffffffffffffffffffffffff16815260200190815260200160002060006101000a81548160ff0219169083151502179055507f3f2c9d57c068687834f0de942a9babb9e5acab57d516d3480a3c16ee165a42736106846110d9565b600460405161069492919061220f565b60405180910390a1565b60006106ab848484611442565b61076c846106b76110d9565b6107678560405180606001604052806028815260200161266b60289139600260008b73ffffffffffffffffffffffffffffffffffffffff1673ffffffffffffffffffffffffffffffffffffffff168152602001908152602001600020600061071d6110d9565b73ffffffffffffffffffffffffffffffffffffffff1673ffffffffffffffffffffffffffffffffffffffff168152602001908152602001600020546116db9092919063ffffffff16565b6110e1565b600190509392505050565b600081116107ba576040517f08c379a00000000000000000000000000000000000000000000000000000000081526004016107b1906123ac565b60405180910390fd5b806107cb6107c66110d9565b610b3a565b1015806108365750600860006107df6110d9565b73ffffffffffffffffffffffffffffffffffffffff1673ffffffffffffffffffffffffffffffffffffffff16815260200190815260200160002060009054906101000a900460ff16158015610835575060048111155b5b610875576040517f08c379a000000000000000000000000000000000000000000000000000000000815260040161086c9061242c565b60405180910390fd5b600860006108816110d9565b73ffffffffffffffffffffffffffffffffffffffff1673ffffffffffffffffffffffffffffffffffffffff16815260200190815260200160002060009054906101000a900460ff166108d6576108d5610465565b5b6109126108ed60328361173690919063ffffffff16565b60076000858152602001908152602001600020600201546117a690919063ffffffff16565b600760008481526020019081526020016000206002018190555061093d6109376110d9565b826117fb565b7f8d68ee857f05464080096b8fbaa1603c09866dfccd25bb348209b1188e60add26109666110d9565b838360405161097793929190612238565b60405180910390a15050565b6000600660009054906101000a900460ff16905090565b6000610a436109a76110d9565b84610a3e85600260006109b86110d9565b73ffffffffffffffffffffffffffffffffffffffff1673ffffffffffffffffffffffffffffffffffffffff16815260200190815260200160002060008973ffffffffffffffffffffffffffffffffffffffff1673ffffffffffffffffffffffffffffffffffffffff168152602001908152602001600020546117a690919063ffffffff16565b6110e1565b6001905092915050565b610a556119fa565b6007600083815260200190815260200160002060405180606001604052908160008201548152602001600182018054600181600116156101000203166002900480601f016020809104026020016040519081016040528092919081815260200182805460018160011615610100020316600290048015610b165780601f10610aeb57610100808354040283529160200191610b16565b820191906000526020600020905b815481529060010190602001808311610af957829003601f168201915b505050505081526020016002820154815250509050919050565b6000600954905090565b6000600160008373ffffffffffffffffffffffffffffffffffffffff1673ffffffffffffffffffffffffffffffffffffffff168152602001908152602001600020549050919050565b610b8b6110d9565b73ffffffffffffffffffffffffffffffffffffffff166000809054906101000a900473ffffffffffffffffffffffffffffffffffffffff1673ffffffffffffffffffffffffffffffffffffffff1614610c19576040517f08c379a0000000000000000000000000000000000000000000000000000000008152600401610c109061238c565b60405180910390fd5b600073ffffffffffffffffffffffffffffffffffffffff166000809054906101000a900473ffffffffffffffffffffffffffffffffffffffff1673ffffffffffffffffffffffffffffffffffffffff167f8be0079c531659141344cd1fd0a4f28419497f9722a3daafe3b4186f6b6457e060405160405180910390a360008060006101000a81548173ffffffffffffffffffffffffffffffffffffffff021916908373ffffffffffffffffffffffffffffffffffffffff160217905550565b60008060009054906101000a900473ffffffffffffffffffffffffffffffffffffffff16905090565b606060058054600181600116156101000203166002900480601f016020809104026020016040519081016040528092919081815260200182805460018160011615610100020316600290048015610d995780601f10610d6e57610100808354040283529160200191610d99565b820191906000526020600020905b815481529060010190602001808311610d7c57829003601f168201915b5050505050905090565b6000610e66610db06110d9565b84610e61856040518060600160405280602581526020016126936025913960026000610dda6110d9565b73ffffffffffffffffffffffffffffffffffffffff1673ffffffffffffffffffffffffffffffffffffffff16815260200190815260200160002060008a73ffffffffffffffffffffffffffffffffffffffff1673ffffffffffffffffffffffffffffffffffffffff168152602001908152602001600020546116db9092919063ffffffff16565b6110e1565b6001905092915050565b6000610e84610e7d6110d9565b8484611442565b6001905092915050565b6000600260008473ffffffffffffffffffffffffffffffffffffffff1673ffffffffffffffffffffffffffffffffffffffff16815260200190815260200160002060008373ffffffffffffffffffffffffffffffffffffffff1673ffffffffffffffffffffffffffffffffffffffff16815260200190815260200160002054905092915050565b610f1d6110d9565b73ffffffffffffffffffffffffffffffffffffffff166000809054906101000a900473ffffffffffffffffffffffffffffffffffffffff1673ffffffffffffffffffffffffffffffffffffffff1614610fab576040517f08c379a0000000000000000000000000000000000000000000000000000000008152600401610fa29061238c565b60405180910390fd5b600073ffffffffffffffffffffffffffffffffffffffff168173ffffffffffffffffffffffffffffffffffffffff16141561101b576040517f08c379a0000000000000000000000000000000000000000000000000000000008152600401611012906122cc565b60405180910390fd5b8073ffffffffffffffffffffffffffffffffffffffff166000809054906101000a900473ffffffffffffffffffffffffffffffffffffffff1673ffffffffffffffffffffffffffffffffffffffff167f8be0079c531659141344cd1fd0a4f28419497f9722a3daafe3b4186f6b6457e060405160405180910390a3806000806101000a81548173ffffffffffffffffffffffffffffffffffffffff021916908373ffffffffffffffffffffffffffffffffffffffff16021790555050565b600033905090565b600073ffffffffffffffffffffffffffffffffffffffff168373ffffffffffffffffffffffffffffffffffffffff161415611151576040517f08c379a00000000000000000000000000000000000000000000000000000000081526004016111489061240c565b60405180910390fd5b600073ffffffffffffffffffffffffffffffffffffffff168273ffffffffffffffffffffffffffffffffffffffff1614156111c1576040517f08c379a00000000000000000000000000000000000000000000000000000000081526004016111b8906122ec565b60405180910390fd5b80600260008573ffffffffffffffffffffffffffffffffffffffff1673ffffffffffffffffffffffffffffffffffffffff16815260200190815260200160002060008473ffffffffffffffffffffffffffffffffffffffff1673ffffffffffffffffffffffffffffffffffffffff168152602001908152602001600020819055508173ffffffffffffffffffffffffffffffffffffffff168373ffffffffffffffffffffffffffffffffffffffff167f8c5be1e5ebec7d5bd14f71427d1e84f3dd0314c0f7b2291e5b200ac8c7c3b9258360405161129f919061248e565b60405180910390a3505050565b600073ffffffffffffffffffffffffffffffffffffffff168273ffffffffffffffffffffffffffffffffffffffff16141561131c576040517f08c379a00000000000000000000000000000000000000000000000000000000081526004016113139061244c565b60405180910390fd5b611328600083836119ab565b61133d816003546117a690919063ffffffff16565b60038190555061139581600160008573ffffffffffffffffffffffffffffffffffffffff1673ffffffffffffffffffffffffffffffffffffffff168152602001908152602001600020546117a690919063ffffffff16565b600160008473ffffffffffffffffffffffffffffffffffffffff1673ffffffffffffffffffffffffffffffffffffffff168152602001908152602001600020819055508173ffffffffffffffffffffffffffffffffffffffff16600073ffffffffffffffffffffffffffffffffffffffff167fddf252ad1be2c89b69c2b068fc378daa952ba7f163c4a11628f55a4df523b3ef83604051611436919061248e565b60405180910390a35050565b600073ffffffffffffffffffffffffffffffffffffffff168373ffffffffffffffffffffffffffffffffffffffff1614156114b2576040517f08c379a00000000000000000000000000000000000000000000000000000000081526004016114a9906123ec565b60405180910390fd5b600073ffffffffffffffffffffffffffffffffffffffff168273ffffffffffffffffffffffffffffffffffffffff161415611522576040517f08c379a0000000000000000000000000000000000000000000000000000000008152600401611519906122ac565b60405180910390fd5b61152d8383836119ab565b6115998160405180606001604052806026815260200161264560269139600160008773ffffffffffffffffffffffffffffffffffffffff1673ffffffffffffffffffffffffffffffffffffffff168152602001908152602001600020546116db9092919063ffffffff16565b600160008573ffffffffffffffffffffffffffffffffffffffff1673ffffffffffffffffffffffffffffffffffffffff1681526020019081526020016000208190555061162e81600160008573ffffffffffffffffffffffffffffffffffffffff1673ffffffffffffffffffffffffffffffffffffffff168152602001908152602001600020546117a690919063ffffffff16565b600160008473ffffffffffffffffffffffffffffffffffffffff1673ffffffffffffffffffffffffffffffffffffffff168152602001908152602001600020819055508173ffffffffffffffffffffffffffffffffffffffff168373ffffffffffffffffffffffffffffffffffffffff167fddf252ad1be2c89b69c2b068fc378daa952ba7f163c4a11628f55a4df523b3ef836040516116ce919061248e565b60405180910390a3505050565b6000838311158290611723576040517f08c379a000000000000000000000000000000000000000000000000000000000815260040161171a919061228a565b60405180910390fd5b5060008385039050809150509392505050565b60008083141561174957600090506117a0565b600082840290508284828161175a57fe5b041461179b576040517f08c379a00000000000000000000000000000000000000000000000000000000081526004016117929061234c565b60405180910390fd5b809150505b92915050565b6000808284019050838110156117f1576040517f08c379a00000000000000000000000000000000000000000000000000000000081526004016117e89061230c565b60405180910390fd5b8091505092915050565b600073ffffffffffffffffffffffffffffffffffffffff168273ffffffffffffffffffffffffffffffffffffffff16141561186b576040517f08c379a0000000000000000000000000000000000000000000000000000000008152600401611862906123cc565b60405180910390fd5b611877826000836119ab565b6118e38160405180606001604052806022815260200161262360229139600160008673ffffffffffffffffffffffffffffffffffffffff1673ffffffffffffffffffffffffffffffffffffffff168152602001908152602001600020546116db9092919063ffffffff16565b600160008473ffffffffffffffffffffffffffffffffffffffff1673ffffffffffffffffffffffffffffffffffffffff1681526020019081526020016000208190555061193b816003546119b090919063ffffffff16565b600381905550600073ffffffffffffffffffffffffffffffffffffffff168273ffffffffffffffffffffffffffffffffffffffff167fddf252ad1be2c89b69c2b068fc378daa952ba7f163c4a11628f55a4df523b3ef8360405161199f919061248e565b60405180910390a35050565b505050565b60006119f283836040518060400160405280601e81526020017f536166654d6174683a207375627472616374696f6e206f766572666c6f7700008152506116db565b905092915050565b60405180606001604052806000815260200160608152602001600081525090565b600081359050611a2a816125dd565b92915050565b600081519050611a3f816125f4565b92915050565b600081359050611a548161260b565b92915050565b600060208284031215611a6c57600080fd5b6000611a7a84828501611a1b565b91505092915050565b60008060408385031215611a9657600080fd5b6000611aa485828601611a1b565b9250506020611ab585828601611a1b565b9150509250929050565b600080600060608486031215611ad457600080fd5b6000611ae286828701611a1b565b9350506020611af386828701611a1b565b9250506040611b0486828701611a45565b9150509250925092565b60008060408385031215611b2157600080fd5b6000611b2f85828601611a1b565b9250506020611b4085828601611a45565b9150509250929050565b600060208284031215611b5c57600080fd5b6000611b6a84828501611a30565b91505092915050565b600060208284031215611b8557600080fd5b6000611b9384828501611a45565b91505092915050565b60008060408385031215611baf57600080fd5b6000611bbd85828601611a45565b9250506020611bce85828601611a45565b9150509250929050565b611be181612551565b82525050565b611bf0816124fc565b82525050565b611bff8161250e565b82525050565b611c0e81612563565b82525050565b6000611c1f826124cf565b611c2981856124eb565b9350611c39818560208601612599565b611c42816125cc565b840191505092915050565b6000611c58826124c4565b611c6281856124da565b9350611c72818560208601612599565b611c7b816125cc565b840191505092915050565b6000611c936023836124eb565b91507f45524332303a207472616e7366657220746f20746865207a65726f206164647260008301527f65737300000000000000000000000000000000000000000000000000000000006020830152604082019050919050565b6000611cf96026836124eb565b91507f4f776e61626c653a206e6577206f776e657220697320746865207a65726f206160008301527f64647265737300000000000000000000000000000000000000000000000000006020830152604082019050919050565b6000611d5f6022836124eb565b91507f45524332303a20617070726f766520746f20746865207a65726f20616464726560008301527f73730000000000000000000000000000000000000000000000000000000000006020830152604082019050919050565b6000611dc5601b836124eb565b91507f536166654d6174683a206164646974696f6e206f766572666c6f7700000000006000830152602082019050919050565b6000611e056024836124eb565b91507f6d73672e73656e64657220616c7265616479206d696e7465642068697320746f60008301527f6b656e73000000000000000000000000000000000000000000000000000000006020830152604082019050919050565b6000611e6b6021836124eb565b91507f536166654d6174683a206d756c7469706c69636174696f6e206f766572666c6f60008301527f77000000000000000000000000000000000000000000000000000000000000006020830152604082019050919050565b6000611ed16032836124eb565b91507f6d73672e73656e646572206d7573742062652061206d656d626572206f66207460008301527f6865204d6169626f72576f6c66662044414f00000000000000000000000000006020830152604082019050919050565b6000611f376020836124eb565b91507f4f776e61626c653a2063616c6c6572206973206e6f7420746865206f776e65726000830152602082019050919050565b6000611f77601e836124eb565b91507f4174206c65617374206f6e6520746f6b656e20697320726571756972656400006000830152602082019050919050565b6000611fb76021836124eb565b91507f45524332303a206275726e2066726f6d20746865207a65726f2061646472657360008301527f73000000000000000000000000000000000000000000000000000000000000006020830152604082019050919050565b600061201d6025836124eb565b91507f45524332303a207472616e736665722066726f6d20746865207a65726f20616460008301527f64726573730000000000000000000000000000000000000000000000000000006020830152604082019050919050565b60006120836024836124eb565b91507f45524332303a20617070726f76652066726f6d20746865207a65726f2061646460008301527f72657373000000000000000000000000000000000000000000000000000000006020830152604082019050919050565b60006120e9601f836124eb565b91507f6d73672e73656e646572206861736e277420656e6f67687420746f6b656e73006000830152602082019050919050565b6000612129601f836124eb565b91507f45524332303a206d696e7420746f20746865207a65726f2061646472657373006000830152602082019050919050565b600060608301600083015161217460008601826121ac565b506020830151848203602086015261218c8282611c4d565b91505060408301516121a160408601826121ac565b508091505092915050565b6121b58161253a565b82525050565b6121c48161253a565b82525050565b6121d381612544565b82525050565b60006020820190506121ee6000830184611be7565b92915050565b60006020820190506122096000830184611bd8565b92915050565b60006040820190506122246000830185611bd8565b6122316020830184611c05565b9392505050565b600060608201905061224d6000830186611bd8565b61225a60208301856121bb565b61226760408301846121bb565b949350505050565b60006020820190506122846000830184611bf6565b92915050565b600060208201905081810360008301526122a48184611c14565b905092915050565b600060208201905081810360008301526122c581611c86565b9050919050565b600060208201905081810360008301526122e581611cec565b9050919050565b6000602082019050818103600083015261230581611d52565b9050919050565b6000602082019050818103600083015261232581611db8565b9050919050565b6000602082019050818103600083015261234581611df8565b9050919050565b6000602082019050818103600083015261236581611e5e565b9050919050565b6000602082019050818103600083015261238581611ec4565b9050919050565b600060208201905081810360008301526123a581611f2a565b9050919050565b600060208201905081810360008301526123c581611f6a565b9050919050565b600060208201905081810360008301526123e581611faa565b9050919050565b6000602082019050818103600083015261240581612010565b9050919050565b6000602082019050818103600083015261242581612076565b9050919050565b60006020820190508181036000830152612445816120dc565b9050919050565b600060208201905081810360008301526124658161211c565b9050919050565b60006020820190508181036000830152612486818461215c565b905092915050565b60006020820190506124a360008301846121bb565b92915050565b60006020820190506124be60008301846121ca565b92915050565b600081519050919050565b600081519050919050565b600082825260208201905092915050565b600082825260208201905092915050565b60006125078261251a565b9050919050565b60008115159050919050565b600073ffffffffffffffffffffffffffffffffffffffff82169050919050565b6000819050919050565b600060ff82169050919050565b600061255c82612575565b9050919050565b600061256e8261253a565b9050919050565b600061258082612587565b9050919050565b60006125928261251a565b9050919050565b60005b838110156125b757808201518184015260208101905061259c565b838111156125c6576000848401525b50505050565b6000601f19601f8301169050919050565b6125e6816124fc565b81146125f157600080fd5b50565b6125fd8161250e565b811461260857600080fd5b50565b6126148161253a565b811461261f57600080fd5b5056fe45524332303a206275726e20616d6f756e7420657863656564732062616c616e636545524332303a207472616e7366657220616d6f756e7420657863656564732062616c616e636545524332303a207472616e7366657220616d6f756e74206578636565647320616c6c6f77616e636545524332303a2064656372656173656420616c6c6f77616e63652062656c6f77207a65726fa2646970667358221220464f4a5d27a81490a10c0ba837395f3baa26ee03d7670eed51ebc09e655eab6d64736f6c63430006020033",
  "source": "// SPDX-License-Identifier: MIT\npragma solidity ^0.6.2;\npragma experimental ABIEncoderV2;\n\nimport \"@openzeppelin/contracts/access/Ownable.sol\";\nimport \"@openzeppelin/contracts/token/ERC20/ERC20.sol\";\nimport \"./mwdao.sol\";\n\ncontract MwdaoCharity2020 is Ownable, ERC20 {\n\n  // #### I. ATTRIBUTES ####\n\n  Mwdao private mwdao;\n\n  mapping(uint256 => Organization) private organizations;\n  mapping(address => bool) private minted;\n\n  uint256 private organizationCount = 0;\n\n  struct Organization {\n    // @notice Unique id for looking up an organization\n    uint256 id;\n\n    // @notice Name of the organization\n    string name;\n\n    // @notice Accumulated fund\n    uint256 fund;\n  }\n\n  // #### II. EVENTS ####\n\n  // @notice An event emitted when tokens got minted\n  event TokensMinted(address donor, uint256 token);\n\n  // @notice An event emitted when donation was sent\n  event DonationSent(address donor, uint256 organizationId, uint256 tokens);\n\n  // #### III. CONSTRUCTOR ####\n\n  constructor(address _mwdao) public ERC20(\"MWDAO Charity 2020 Token\", \"MWC\") {\n    mwdao = Mwdao(_mwdao);\n\n    _setupDecimals(0);\n\n    organizations[1] = Organization({\n      id: 1,\n      name: \"Frank Polster Stiftung\",\n      fund: 0\n    });\n\n    organizations[2] = Organization({\n      id: 2,\n      name: \"Bill Gates foundation\",\n      fund: 0\n    });\n\n    organizations[3] = Organization({\n      id: 3,\n      name: \"Third organization\",\n      fund: 0\n    });\n\n    organizations[4] = Organization({\n      id: 4,\n      name: \"And so on...\",\n      fund: 0\n    });\n\n    organizationCount = 4;\n  }\n\n  function mintToken() public {\n    require(mwdao.isMember(_msgSender()), \"msg.sender must be a member of the MaiborWolff DAO\");\n    require(!minted[_msgSender()], \"msg.sender already minted his tokens\");\n\n    _mint(_msgSender(), 4);\n    minted[_msgSender()] = true;\n\n    emit TokensMinted(_msgSender(), 4);\n  }\n\n  function supportOrganization(uint256 organizationId, uint256 tokens) external {\n    require(tokens > 0, \"At least one token is required\");\n    require(balanceOf(_msgSender()) >= tokens || ( !minted[_msgSender()] && tokens <= 4), \"msg.sender hasn't enoght tokens\");\n\n    if (!minted[_msgSender()]) {\n      mintToken();\n    }\n\n    organizations[organizationId].fund = organizations[organizationId].fund.add(tokens.mul(50));\n\n    _burn(_msgSender(), tokens);\n\n    emit DonationSent(_msgSender(), organizationId, tokens);\n  }\n\n  // #### V. GETTER ####\n\n  function getOrganizationCount() public view returns (uint256 count) { return organizationCount; }\n\n  function getOrganization(uint256 organizationId) public view returns (Organization memory organization) {\n    return organizations[organizationId];\n  }\n\n  // #### VI. HELPER ####\n\n  function incrementOrganizationCount() internal onlyOwner { organizationCount++; }\n}\n",
  "sourcePath": "/home/myron/Code/github.com/mw-charity-2020/contracts/mwdao-charity-2020.sol",
  "compiler": {
    "name": "solc",
    "version": "0.6.2+commit.bacdbe57.Emscripten.clang"
  },
  "schemaVersion": "3.4.1",
  "updatedAt": "2021-05-19T16:09:55.624Z",
  "networkType": "ethereum",
  "devdoc": {
    "methods": {
      "allowance(address,address)": {
        "details": "See {IERC20-allowance}."
      },
      "approve(address,uint256)": {
        "details": "See {IERC20-approve}.     * Requirements:     * - `spender` cannot be the zero address."
      },
      "balanceOf(address)": {
        "details": "See {IERC20-balanceOf}."
      },
      "decimals()": {
        "details": "Returns the number of decimals used to get its user representation. For example, if `decimals` equals `2`, a balance of `505` tokens should be displayed to a user as `5,05` (`505 / 10 ** 2`).     * Tokens usually opt for a value of 18, imitating the relationship between Ether and Wei. This is the value {ERC20} uses, unless {_setupDecimals} is called.     * NOTE: This information is only used for _display_ purposes: it in no way affects any of the arithmetic of the contract, including {IERC20-balanceOf} and {IERC20-transfer}."
      },
      "decreaseAllowance(address,uint256)": {
        "details": "Atomically decreases the allowance granted to `spender` by the caller.     * This is an alternative to {approve} that can be used as a mitigation for problems described in {IERC20-approve}.     * Emits an {Approval} event indicating the updated allowance.     * Requirements:     * - `spender` cannot be the zero address. - `spender` must have allowance for the caller of at least `subtractedValue`."
      },
      "increaseAllowance(address,uint256)": {
        "details": "Atomically increases the allowance granted to `spender` by the caller.     * This is an alternative to {approve} that can be used as a mitigation for problems described in {IERC20-approve}.     * Emits an {Approval} event indicating the updated allowance.     * Requirements:     * - `spender` cannot be the zero address."
      },
      "name()": {
        "details": "Returns the name of the token."
      },
      "owner()": {
        "details": "Returns the address of the current owner."
      },
      "renounceOwnership()": {
        "details": "Leaves the contract without owner. It will not be possible to call `onlyOwner` functions anymore. Can only be called by the current owner.     * NOTE: Renouncing ownership will leave the contract without an owner, thereby removing any functionality that is only available to the owner."
      },
      "symbol()": {
        "details": "Returns the symbol of the token, usually a shorter version of the name."
      },
      "totalSupply()": {
        "details": "See {IERC20-totalSupply}."
      },
      "transfer(address,uint256)": {
        "details": "See {IERC20-transfer}.     * Requirements:     * - `recipient` cannot be the zero address. - the caller must have a balance of at least `amount`."
      },
      "transferFrom(address,address,uint256)": {
        "details": "See {IERC20-transferFrom}.     * Emits an {Approval} event indicating the updated allowance. This is not required by the EIP. See the note at the beginning of {ERC20};     * Requirements: - `sender` and `recipient` cannot be the zero address. - `sender` must have a balance of at least `amount`. - the caller must have allowance for ``sender``'s tokens of at least `amount`."
      },
      "transferOwnership(address)": {
        "details": "Transfers ownership of the contract to a new account (`newOwner`). Can only be called by the current owner."
      }
    }
  },
  "userdoc": {
    "methods": {}
  }
}